:100000000AC022C021C020C01FC01EC01EC04CC0DC
:100010001BC01AC019C011241FBECFEDCDBF10E008
:10002000A0E6B0E0E4ECF2E003C0C89531960D9292
:10003000A036B107D1F710E0A0E6B0E001C01D92F4
:10004000A63AB107E1F7D7C0DBCF1F920F920FB6E8
:100050000F9211248F9386EA82BF809160008823DB
:1000600029F0809160008150809360008091A3000E
:10007000882339F0C2988091A30081508093A30017
:1000800001C0C29A8091A500882339F0C39880915D
:10009000A50081508093A50001C0C39A8F910F9055
:1000A0000FBE0F901F9018951F920F920FB60F92D0
:1000B00011248F939F93EF93FF93909161009F5F23
:1000C000903409F490E080916200981739F480919F
:1000D000A40081608093A4008CB10AC0809161006B
:1000E000E82FFF27ED59FF4F8CB18083909361007B
:1000F000FF91EF919F918F910F900FBE0F901F90E6
:1001000018958AE0809360002091620080916100E0
:10011000922F821721F4809160008823B9F7809193
:100120006100891741F48091A40082608093A4004B
:1001300080E090E00895E22FFF27ED59FF4FE08126
:10014000822F8F5F80936200803411F410926200DE
:100150008E2F992708955D9BFECF8CB90895F89452
:10016000889416D0879514D0879512D0879510D093
:1001700087950ED087950CD087950AD0879508D0A3
:10018000879506D0089404D0089402D078940BC0C8
:1001900018F00000C09802C0C09A00C0F7E0FA95BD
:1001A000F1F700C008950895C09886EE90E0019799
:1001B000F1F7C09A87E190E00197F1F780E0CFDF97
:1001C0000895CF93DF93D92FC82FEEDF21978FEFBC
:1001D000CF3FD80769F095DF982F8091A40088233E
:1001E00039F4892FBCDF21978FEFCF3FD80799F7DC
:1001F000DF91CF910895CFEDD0E0DEBFCDBF8FE18D
:1002000088BB8DE187BB92E092BB82E481BB84E036
:1002100089B988E98AB986EA82BF85E083BF99BF38
:100220007894C4981092A4006CDF982F8091A40059
:10023000882399F59A3561F564DF982F8091A400A1
:10024000882359F5892F9927813A910571F0823ACF
:10025000910524F4803A910529F00EC0823A910567
:1002600039F00AC080E690E005C080E091E002C06D
:1002700080E092E0A6DF05C08091A40084608093B6
:10028000A4008091A400882341F43BDF853A29F043
:100290008091A40084608093A4008091A4008823AE
:1002A00039F08AE08093A5008AE555DF80EC06C02E
:1002B0008AE08093A3008AE54EDF81EC4CDF85EA7B
:0402C0004ADFB0CF92
:00000001FF
